{
  "_format": "hh-sol-artifact-1",
  "contractName": "StakingPool",
  "sourceName": "contracts/StakingPool.sol",
  "abi": [
    {
      "inputs": [],
      "stateMutability": "nonpayable",
      "type": "constructor"
    },
    {
      "anonymous": false,
      "inputs": [
        {
          "indexed": false,
          "internalType": "address",
          "name": "investor",
          "type": "address"
        }
      ],
      "name": "NewInvestor",
      "type": "event"
    },
    {
      "inputs": [],
      "name": "admin",
      "outputs": [
        {
          "internalType": "address",
          "name": "",
          "type": "address"
        }
      ],
      "stateMutability": "view",
      "type": "function"
    },
    {
      "inputs": [
        {
          "internalType": "address",
          "name": "",
          "type": "address"
        }
      ],
      "name": "balances",
      "outputs": [
        {
          "internalType": "uint256",
          "name": "",
          "type": "uint256"
        }
      ],
      "stateMutability": "view",
      "type": "function"
    },
    {
      "inputs": [
        {
          "internalType": "address",
          "name": "",
          "type": "address"
        }
      ],
      "name": "changeClaimed",
      "outputs": [
        {
          "internalType": "bool",
          "name": "",
          "type": "bool"
        }
      ],
      "stateMutability": "view",
      "type": "function"
    },
    {
      "inputs": [
        {
          "internalType": "bytes",
          "name": "pubkey",
          "type": "bytes"
        },
        {
          "internalType": "bytes",
          "name": "withdrawal_credentials",
          "type": "bytes"
        },
        {
          "internalType": "bytes",
          "name": "signature",
          "type": "bytes"
        },
        {
          "internalType": "bytes32",
          "name": "deposit_data_root",
          "type": "bytes32"
        }
      ],
      "name": "deposit",
      "outputs": [],
      "stateMutability": "nonpayable",
      "type": "function"
    },
    {
      "inputs": [],
      "name": "depositContract",
      "outputs": [
        {
          "internalType": "contract IDepositContract",
          "name": "",
          "type": "address"
        }
      ],
      "stateMutability": "view",
      "type": "function"
    },
    {
      "inputs": [],
      "name": "end",
      "outputs": [
        {
          "internalType": "uint256",
          "name": "",
          "type": "uint256"
        }
      ],
      "stateMutability": "view",
      "type": "function"
    },
    {
      "inputs": [],
      "name": "finalize",
      "outputs": [],
      "stateMutability": "nonpayable",
      "type": "function"
    },
    {
      "inputs": [],
      "name": "finalized",
      "outputs": [
        {
          "internalType": "bool",
          "name": "",
          "type": "bool"
        }
      ],
      "stateMutability": "view",
      "type": "function"
    },
    {
      "inputs": [],
      "name": "getChange",
      "outputs": [],
      "stateMutability": "nonpayable",
      "type": "function"
    },
    {
      "inputs": [],
      "name": "invest",
      "outputs": [],
      "stateMutability": "payable",
      "type": "function"
    },
    {
      "inputs": [
        {
          "internalType": "bytes",
          "name": "",
          "type": "bytes"
        }
      ],
      "name": "pubkeysUsed",
      "outputs": [
        {
          "internalType": "bool",
          "name": "",
          "type": "bool"
        }
      ],
      "stateMutability": "view",
      "type": "function"
    },
    {
      "inputs": [],
      "name": "totalChange",
      "outputs": [
        {
          "internalType": "uint256",
          "name": "",
          "type": "uint256"
        }
      ],
      "stateMutability": "view",
      "type": "function"
    },
    {
      "inputs": [],
      "name": "totalInvested",
      "outputs": [
        {
          "internalType": "uint256",
          "name": "",
          "type": "uint256"
        }
      ],
      "stateMutability": "view",
      "type": "function"
    }
  ],
  "bytecode": "0x60806040526f219ab540356cbb839cbe05303d7705fa600260006101000a81548173ffffffffffffffffffffffffffffffffffffffff021916908373ffffffffffffffffffffffffffffffffffffffff16021790555034801561006157600080fd5b5033600360006101000a81548173ffffffffffffffffffffffffffffffffffffffff021916908373ffffffffffffffffffffffffffffffffffffffff16021790555062093a80426100b291906100bd565b60048190555061014c565b60006100c882610113565b91506100d383610113565b9250827fffffffffffffffffffffffffffffffffffffffffffffffffffffffffffffffff038211156101085761010761011d565b5b828201905092915050565b6000819050919050565b7f4e487b7100000000000000000000000000000000000000000000000000000000600052601160045260246000fd5b6113e1806200015c6000396000f3fe6080604052600436106100c25760003560e01c806391aa47891161007f578063e8b5e51f11610059578063e8b5e51f14610256578063e94ad65b14610260578063efbe1c1c1461028b578063f851a440146102b6576100c2565b806391aa4789146101d7578063b3f05b9714610214578063b7ed5abc1461023f576100c2565b806322895118146100c757806327e235e3146100f05780634bb278f31461012d5780635216aeec146101445780635411c7bd1461016f5780637aa8ff191461019a575b600080fd5b3480156100d357600080fd5b506100ee60048036038101906100e99190610b3e565b6102e1565b005b3480156100fc57600080fd5b5061011760048036038101906101129190610b15565b6104fd565b604051610124919061109f565b60405180910390f35b34801561013957600080fd5b50610142610515565b005b34801561015057600080fd5b506101596105ef565b604051610166919061109f565b60405180910390f35b34801561017b57600080fd5b506101846105f5565b604051610191919061109f565b60405180910390f35b3480156101a657600080fd5b506101c160048036038101906101bc9190610b15565b6105fb565b6040516101ce9190610f09565b60405180910390f35b3480156101e357600080fd5b506101fe60048036038101906101f99190610bf7565b61061b565b60405161020b9190610f09565b60405180910390f35b34801561022057600080fd5b50610229610651565b6040516102369190610f09565b60405180910390f35b34801561024b57600080fd5b50610254610664565b005b61025e6108cd565b005b34801561026c57600080fd5b506102756109e7565b6040516102829190610f84565b60405180910390f35b34801561029757600080fd5b506102a0610a0d565b6040516102ad919061109f565b60405180910390f35b3480156102c257600080fd5b506102cb610a13565b6040516102d89190610eee565b60405180910390f35b60011515600560009054906101000a900460ff16151514610337576040517f08c379a000000000000000000000000000000000000000000000000000000000815260040161032e9061105f565b60405180910390fd5b600360009054906101000a900473ffffffffffffffffffffffffffffffffffffffff1673ffffffffffffffffffffffffffffffffffffffff163373ffffffffffffffffffffffffffffffffffffffff16146103c7576040517f08c379a00000000000000000000000000000000000000000000000000000000081526004016103be90610fbf565b60405180910390fd5b6801bc16d674ec8000004710156103dd57600080fd5b60001515600188886040516103f3929190610ed5565b908152602001604051809103902060009054906101000a900460ff16151514610451576040517f08c379a000000000000000000000000000000000000000000000000000000000815260040161044890610fdf565b60405180910390fd5b600260009054906101000a900473ffffffffffffffffffffffffffffffffffffffff1673ffffffffffffffffffffffffffffffffffffffff1663228951186801bc16d674ec800000898989898989896040518963ffffffff1660e01b81526004016104c29796959493929190610f24565b6000604051808303818588803b1580156104db57600080fd5b505af11580156104ef573d6000803e3d6000fd5b505050505050505050505050565b60006020528060005260406000206000915090505481565b60045442101561055a576040517f08c379a00000000000000000000000000000000000000000000000000000000081526004016105519061105f565b60405180910390fd5b60001515600560009054906101000a900460ff161515146105b0576040517f08c379a00000000000000000000000000000000000000000000000000000000081526004016105a79061103f565b60405180910390fd5b6001600560006101000a81548160ff021916908315150217905550476006819055506801bc16d674ec800000476105e791906112ae565b600781905550565b60065481565b60075481565b60086020528060005260406000206000915054906101000a900460ff1681565b6001818051602081018201805184825260208301602085012081835280955050505050506000915054906101000a900460ff1681565b600560009054906101000a900460ff1681565b60011515600560009054906101000a900460ff161515146106ba576040517f08c379a00000000000000000000000000000000000000000000000000000000081526004016106b190610f9f565b60405180910390fd5b60008060003373ffffffffffffffffffffffffffffffffffffffff1673ffffffffffffffffffffffffffffffffffffffff168152602001908152602001600020541161073b576040517f08c379a00000000000000000000000000000000000000000000000000000000081526004016107329061101f565b60405180910390fd5b60001515600860003373ffffffffffffffffffffffffffffffffffffffff1673ffffffffffffffffffffffffffffffffffffffff16815260200190815260200160002060009054906101000a900460ff161515146107ce576040517f08c379a00000000000000000000000000000000000000000000000000000000081526004016107c590610fff565b60405180910390fd5b6001600860003373ffffffffffffffffffffffffffffffffffffffff1673ffffffffffffffffffffffffffffffffffffffff16815260200190815260200160002060006101000a81548160ff02191690831515021790555060006006546000803373ffffffffffffffffffffffffffffffffffffffff1673ffffffffffffffffffffffffffffffffffffffff1681526020019081526020016000205460075461087791906111cf565b610881919061119e565b90503373ffffffffffffffffffffffffffffffffffffffff166108fc829081150290604051600060405180830381858888f193505050501580156108c9573d6000803e3d6000fd5b5050565b6004544210610911576040517f08c379a00000000000000000000000000000000000000000000000000000000081526004016109089061107f565b60405180910390fd5b60008060003373ffffffffffffffffffffffffffffffffffffffff1673ffffffffffffffffffffffffffffffffffffffff168152602001908152602001600020541415610990577f97d33a7365e760e859a3453f70484ea24a4aeb75478205a52ac35174ead0ccf6336040516109879190610eee565b60405180910390a15b346000803373ffffffffffffffffffffffffffffffffffffffff1673ffffffffffffffffffffffffffffffffffffffff16815260200190815260200160002060008282546109de9190611148565b92505081905550565b600260009054906101000a900473ffffffffffffffffffffffffffffffffffffffff1681565b60045481565b600360009054906101000a900473ffffffffffffffffffffffffffffffffffffffff1681565b6000610a4c610a47846110eb565b6110ba565b905082815260208101848484011115610a6457600080fd5b610a6f84828561129f565b509392505050565b600081359050610a868161137d565b92915050565b600081359050610a9b81611394565b92915050565b60008083601f840112610ab357600080fd5b8235905067ffffffffffffffff811115610acc57600080fd5b602083019150836001820283011115610ae457600080fd5b9250929050565b600082601f830112610afc57600080fd5b8135610b0c848260208601610a39565b91505092915050565b600060208284031215610b2757600080fd5b6000610b3584828501610a77565b91505092915050565b60008060008060008060006080888a031215610b5957600080fd5b600088013567ffffffffffffffff811115610b7357600080fd5b610b7f8a828b01610aa1565b9750975050602088013567ffffffffffffffff811115610b9e57600080fd5b610baa8a828b01610aa1565b9550955050604088013567ffffffffffffffff811115610bc957600080fd5b610bd58a828b01610aa1565b93509350506060610be88a828b01610a8c565b91505092959891949750929550565b600060208284031215610c0957600080fd5b600082013567ffffffffffffffff811115610c2357600080fd5b610c2f84828501610aeb565b91505092915050565b610c4181611229565b82525050565b610c508161123b565b82525050565b610c5f81611247565b82525050565b6000610c71838561111b565b9350610c7e83858461129f565b610c878361136c565b840190509392505050565b6000610c9e838561112c565b9350610cab83858461129f565b82840190509392505050565b610cc08161127b565b82525050565b6000610cd3600d83611137565b91507f6e6f742066696e616c697a6564000000000000000000000000000000000000006000830152602082019050919050565b6000610d13600a83611137565b91507f6f6e6c792061646d696e000000000000000000000000000000000000000000006000830152602082019050919050565b6000610d53601c83611137565b91507f74686973207075626b65792077617320616c72656164792075736564000000006000830152602082019050919050565b6000610d93601683611137565b91507f6368616e676520616c726561647920636c61696d6564000000000000000000006000830152602082019050919050565b6000610dd3600f83611137565b91507f6e6f7420616e20696e766573746f7200000000000000000000000000000000006000830152602082019050919050565b6000610e13601183611137565b91507f616c72656164792066696e616c697a65640000000000000000000000000000006000830152602082019050919050565b6000610e53600983611137565b91507f746f6f206561726c7900000000000000000000000000000000000000000000006000830152602082019050919050565b6000610e93600883611137565b91507f746f6f206c6174650000000000000000000000000000000000000000000000006000830152602082019050919050565b610ecf81611271565b82525050565b6000610ee2828486610c92565b91508190509392505050565b6000602082019050610f036000830184610c38565b92915050565b6000602082019050610f1e6000830184610c47565b92915050565b60006080820190508181036000830152610f3f81898b610c65565b90508181036020830152610f54818789610c65565b90508181036040830152610f69818587610c65565b9050610f786060830184610c56565b98975050505050505050565b6000602082019050610f996000830184610cb7565b92915050565b60006020820190508181036000830152610fb881610cc6565b9050919050565b60006020820190508181036000830152610fd881610d06565b9050919050565b60006020820190508181036000830152610ff881610d46565b9050919050565b6000602082019050818103600083015261101881610d86565b9050919050565b6000602082019050818103600083015261103881610dc6565b9050919050565b6000602082019050818103600083015261105881610e06565b9050919050565b6000602082019050818103600083015261107881610e46565b9050919050565b6000602082019050818103600083015261109881610e86565b9050919050565b60006020820190506110b46000830184610ec6565b92915050565b6000604051905081810181811067ffffffffffffffff821117156110e1576110e061133d565b5b8060405250919050565b600067ffffffffffffffff8211156111065761110561133d565b5b601f19601f8301169050602081019050919050565b600082825260208201905092915050565b600081905092915050565b600082825260208201905092915050565b600061115382611271565b915061115e83611271565b9250827fffffffffffffffffffffffffffffffffffffffffffffffffffffffffffffffff03821115611193576111926112df565b5b828201905092915050565b60006111a982611271565b91506111b483611271565b9250826111c4576111c361130e565b5b828204905092915050565b60006111da82611271565b91506111e583611271565b9250817fffffffffffffffffffffffffffffffffffffffffffffffffffffffffffffffff048311821515161561121e5761121d6112df565b5b828202905092915050565b600061123482611251565b9050919050565b60008115159050919050565b6000819050919050565b600073ffffffffffffffffffffffffffffffffffffffff82169050919050565b6000819050919050565b60006112868261128d565b9050919050565b600061129882611251565b9050919050565b82818337600083830152505050565b60006112b982611271565b91506112c483611271565b9250826112d4576112d361130e565b5b828206905092915050565b7f4e487b7100000000000000000000000000000000000000000000000000000000600052601160045260246000fd5b7f4e487b7100000000000000000000000000000000000000000000000000000000600052601260045260246000fd5b7f4e487b7100000000000000000000000000000000000000000000000000000000600052604160045260246000fd5b6000601f19601f8301169050919050565b61138681611229565b811461139157600080fd5b50565b61139d81611247565b81146113a857600080fd5b5056fea2646970667358221220cd7c9e66f9e26bcf484e5d54194323213a621c744bc842539aba1937038a9c8164736f6c63430008000033",
  "linkReferences": {},
  "deployedLinkReferences": {}
}