{
  "_format": "hh-sol-artifact-1",
  "contractName": "Transactions",
  "sourceName": "contracts/Transactions.sol",
  "abi": [
    {
      "anonymous": false,
      "inputs": [
        {
          "indexed": false,
          "internalType": "address",
          "name": "from",
          "type": "address"
        },
        {
          "indexed": false,
          "internalType": "address",
          "name": "receiver",
          "type": "address"
        },
        {
          "indexed": false,
          "internalType": "uint256",
          "name": "amount",
          "type": "uint256"
        },
        {
          "indexed": false,
          "internalType": "string",
          "name": "message",
          "type": "string"
        },
        {
          "indexed": false,
          "internalType": "uint256",
          "name": "timestamp",
          "type": "uint256"
        }
      ],
      "name": "Transfer",
      "type": "event"
    },
    {
      "inputs": [
        {
          "internalType": "address payable",
          "name": "receiver",
          "type": "address"
        },
        {
          "internalType": "uint256",
          "name": "amount",
          "type": "uint256"
        },
        {
          "internalType": "string",
          "name": "message",
          "type": "string"
        }
      ],
      "name": "addTransaction",
      "outputs": [],
      "stateMutability": "nonpayable",
      "type": "function"
    },
    {
      "inputs": [],
      "name": "getTransactions",
      "outputs": [
        {
          "components": [
            {
              "internalType": "address",
              "name": "sender",
              "type": "address"
            },
            {
              "internalType": "address payable",
              "name": "receiver",
              "type": "address"
            },
            {
              "internalType": "uint256",
              "name": "amount",
              "type": "uint256"
            },
            {
              "internalType": "string",
              "name": "message",
              "type": "string"
            },
            {
              "internalType": "uint256",
              "name": "timestamp",
              "type": "uint256"
            }
          ],
          "internalType": "struct Transactions.TransferStruct[]",
          "name": "",
          "type": "tuple[]"
        }
      ],
      "stateMutability": "view",
      "type": "function"
    },
    {
      "inputs": [],
      "name": "transactionCount",
      "outputs": [
        {
          "internalType": "uint256",
          "name": "",
          "type": "uint256"
        }
      ],
      "stateMutability": "view",
      "type": "function"
    },
    {
      "inputs": [
        {
          "internalType": "uint256",
          "name": "",
          "type": "uint256"
        }
      ],
      "name": "transactions",
      "outputs": [
        {
          "internalType": "address",
          "name": "sender",
          "type": "address"
        },
        {
          "internalType": "address payable",
          "name": "receiver",
          "type": "address"
        },
        {
          "internalType": "uint256",
          "name": "amount",
          "type": "uint256"
        },
        {
          "internalType": "string",
          "name": "message",
          "type": "string"
        },
        {
          "internalType": "uint256",
          "name": "timestamp",
          "type": "uint256"
        }
      ],
      "stateMutability": "view",
      "type": "function"
    }
  ],
  "bytecode": "0x608060405234801561001057600080fd5b50610ce5806100206000396000f3fe608060405234801561001057600080fd5b506004361061004c5760003560e01c8063090c85a41461005157806383920e901461006d5780639ace38c21461008b578063b77bf600146100bf575b600080fd5b61006b60048036038101906100669190610673565b6100dd565b005b610075610279565b6040516100829190610991565b60405180910390f35b6100a560048036038101906100a091906106da565b61042a565b6040516100b69594939291906108dd565b60405180910390f35b6100c7610538565b6040516100d491906109b3565b60405180910390f35b60016000808282546100ef9190610a95565b9250508190555060016040518060a001604052803373ffffffffffffffffffffffffffffffffffffffff1681526020018573ffffffffffffffffffffffffffffffffffffffff16815260200184815260200183815260200142815250908060018154018082558091505060019003906000526020600020906005020160009091909190915060008201518160000160006101000a81548173ffffffffffffffffffffffffffffffffffffffff021916908373ffffffffffffffffffffffffffffffffffffffff16021790555060208201518160010160006101000a81548173ffffffffffffffffffffffffffffffffffffffff021916908373ffffffffffffffffffffffffffffffffffffffff16021790555060408201518160020155606082015181600301908051906020019061022892919061053e565b506080820151816004015550507fc4b32d7ff75a51e487f3cbb5d3202f2efecca1f4c2b987e0039c1d3220b48a83338484844260405161026c959493929190610937565b60405180910390a1505050565b60606001805480602002602001604051908101604052809291908181526020016000905b8282101561042157838290600052602060002090600502016040518060a00160405290816000820160009054906101000a900473ffffffffffffffffffffffffffffffffffffffff1673ffffffffffffffffffffffffffffffffffffffff1673ffffffffffffffffffffffffffffffffffffffff1681526020016001820160009054906101000a900473ffffffffffffffffffffffffffffffffffffffff1673ffffffffffffffffffffffffffffffffffffffff1673ffffffffffffffffffffffffffffffffffffffff1681526020016002820154815260200160038201805461038690610bb1565b80601f01602080910402602001604051908101604052809291908181526020018280546103b290610bb1565b80156103ff5780601f106103d4576101008083540402835291602001916103ff565b820191906000526020600020905b8154815290600101906020018083116103e257829003601f168201915b505050505081526020016004820154815250508152602001906001019061029d565b50505050905090565b6001818154811061043a57600080fd5b90600052602060002090600502016000915090508060000160009054906101000a900473ffffffffffffffffffffffffffffffffffffffff16908060010160009054906101000a900473ffffffffffffffffffffffffffffffffffffffff16908060020154908060030180546104af90610bb1565b80601f01602080910402602001604051908101604052809291908181526020018280546104db90610bb1565b80156105285780601f106104fd57610100808354040283529160200191610528565b820191906000526020600020905b81548152906001019060200180831161050b57829003601f168201915b5050505050908060040154905085565b60005481565b82805461054a90610bb1565b90600052602060002090601f01602090048101928261056c57600085556105b3565b82601f1061058557805160ff19168380011785556105b3565b828001600101855582156105b3579182015b828111156105b2578251825591602001919060010190610597565b5b5090506105c091906105c4565b5090565b5b808211156105dd5760008160009055506001016105c5565b5090565b60006105f46105ef846109ff565b6109ce565b90508281526020810184848401111561060c57600080fd5b610617848285610b6f565b509392505050565b60008135905061062e81610c81565b92915050565b600082601f83011261064557600080fd5b81356106558482602086016105e1565b91505092915050565b60008135905061066d81610c98565b92915050565b60008060006060848603121561068857600080fd5b60006106968682870161061f565b93505060206106a78682870161065e565b925050604084013567ffffffffffffffff8111156106c457600080fd5b6106d086828701610634565b9150509250925092565b6000602082840312156106ec57600080fd5b60006106fa8482850161065e565b91505092915050565b600061070f8383610849565b905092915050565b61072081610b39565b82525050565b61072f81610afd565b82525050565b61073e81610afd565b82525050565b61074d81610aeb565b82525050565b61075c81610aeb565b82525050565b600061076d82610a3f565b6107778185610a62565b93508360208202850161078985610a2f565b8060005b858110156107c557848403895281516107a68582610703565b94506107b183610a55565b925060208a0199505060018101905061078d565b50829750879550505050505092915050565b60006107e282610a4a565b6107ec8185610a73565b93506107fc818560208601610b7e565b61080581610c70565b840191505092915050565b600061081b82610a4a565b6108258185610a84565b9350610835818560208601610b7e565b61083e81610c70565b840191505092915050565b600060a0830160008301516108616000860182610744565b5060208301516108746020860182610726565b50604083015161088760408601826108bf565b506060830151848203606086015261089f82826107d7565b91505060808301516108b460808601826108bf565b508091505092915050565b6108c881610b2f565b82525050565b6108d781610b2f565b82525050565b600060a0820190506108f26000830188610753565b6108ff6020830187610735565b61090c60408301866108ce565b818103606083015261091e8185610810565b905061092d60808301846108ce565b9695505050505050565b600060a08201905061094c6000830188610753565b6109596020830187610717565b61096660408301866108ce565b81810360608301526109788185610810565b905061098760808301846108ce565b9695505050505050565b600060208201905081810360008301526109ab8184610762565b905092915050565b60006020820190506109c860008301846108ce565b92915050565b6000604051905081810181811067ffffffffffffffff821117156109f5576109f4610c41565b5b8060405250919050565b600067ffffffffffffffff821115610a1a57610a19610c41565b5b601f19601f8301169050602081019050919050565b6000819050602082019050919050565b600081519050919050565b600081519050919050565b6000602082019050919050565b600082825260208201905092915050565b600082825260208201905092915050565b600082825260208201905092915050565b6000610aa082610b2f565b9150610aab83610b2f565b9250827fffffffffffffffffffffffffffffffffffffffffffffffffffffffffffffffff03821115610ae057610adf610be3565b5b828201905092915050565b6000610af682610b0f565b9050919050565b6000610b0882610b0f565b9050919050565b600073ffffffffffffffffffffffffffffffffffffffff82169050919050565b6000819050919050565b6000610b4482610b4b565b9050919050565b6000610b5682610b5d565b9050919050565b6000610b6882610b0f565b9050919050565b82818337600083830152505050565b60005b83811015610b9c578082015181840152602081019050610b81565b83811115610bab576000848401525b50505050565b60006002820490506001821680610bc957607f821691505b60208210811415610bdd57610bdc610c12565b5b50919050565b7f4e487b7100000000000000000000000000000000000000000000000000000000600052601160045260246000fd5b7f4e487b7100000000000000000000000000000000000000000000000000000000600052602260045260246000fd5b7f4e487b7100000000000000000000000000000000000000000000000000000000600052604160045260246000fd5b6000601f19601f8301169050919050565b610c8a81610afd565b8114610c9557600080fd5b50565b610ca181610b2f565b8114610cac57600080fd5b5056fea2646970667358221220405f643f3d5311b8408b95e809687b2fdf340e5178698fe151fe86372996d5c964736f6c63430008000033",
  "linkReferences": {},
  "deployedLinkReferences": {}
}