{
  "_format": "hh-sol-artifact-1",
  "contractName": "Lottery",
  "sourceName": "contracts/Lottery.sol",
  "abi": [
    {
      "inputs": [
        {
          "internalType": "address",
          "name": "_manager",
          "type": "address"
        }
      ],
      "stateMutability": "nonpayable",
      "type": "constructor"
    },
    {
      "anonymous": false,
      "inputs": [
        {
          "indexed": false,
          "internalType": "address",
          "name": "winner",
          "type": "address"
        },
        {
          "indexed": false,
          "internalType": "uint256",
          "name": "winningPrice",
          "type": "uint256"
        }
      ],
      "name": "WinnerDeclared",
      "type": "event"
    },
    {
      "inputs": [],
      "name": "_end",
      "outputs": [
        {
          "internalType": "uint256",
          "name": "",
          "type": "uint256"
        }
      ],
      "stateMutability": "view",
      "type": "function"
    },
    {
      "inputs": [],
      "name": "end",
      "outputs": [],
      "stateMutability": "nonpayable",
      "type": "function"
    },
    {
      "inputs": [],
      "name": "enter",
      "outputs": [],
      "stateMutability": "payable",
      "type": "function"
    },
    {
      "inputs": [],
      "name": "entryFee",
      "outputs": [
        {
          "internalType": "uint256",
          "name": "",
          "type": "uint256"
        }
      ],
      "stateMutability": "view",
      "type": "function"
    },
    {
      "inputs": [],
      "name": "getPlayers",
      "outputs": [
        {
          "internalType": "address[]",
          "name": "",
          "type": "address[]"
        }
      ],
      "stateMutability": "view",
      "type": "function"
    },
    {
      "inputs": [],
      "name": "getRemainingTime",
      "outputs": [
        {
          "internalType": "uint256",
          "name": "",
          "type": "uint256"
        }
      ],
      "stateMutability": "nonpayable",
      "type": "function"
    },
    {
      "inputs": [],
      "name": "getWinner",
      "outputs": [
        {
          "internalType": "address",
          "name": "",
          "type": "address"
        }
      ],
      "stateMutability": "view",
      "type": "function"
    },
    {
      "inputs": [],
      "name": "manager",
      "outputs": [
        {
          "internalType": "address",
          "name": "",
          "type": "address"
        }
      ],
      "stateMutability": "view",
      "type": "function"
    },
    {
      "inputs": [
        {
          "internalType": "uint256",
          "name": "",
          "type": "uint256"
        }
      ],
      "name": "players",
      "outputs": [
        {
          "internalType": "address",
          "name": "",
          "type": "address"
        }
      ],
      "stateMutability": "view",
      "type": "function"
    },
    {
      "inputs": [
        {
          "internalType": "uint256",
          "name": "_timeInMinutes",
          "type": "uint256"
        }
      ],
      "name": "start",
      "outputs": [],
      "stateMutability": "nonpayable",
      "type": "function"
    },
    {
      "inputs": [],
      "name": "status",
      "outputs": [
        {
          "internalType": "enum Lottery.LotteryStatus",
          "name": "",
          "type": "uint8"
        }
      ],
      "stateMutability": "view",
      "type": "function"
    },
    {
      "inputs": [],
      "name": "time",
      "outputs": [
        {
          "internalType": "uint256",
          "name": "",
          "type": "uint256"
        }
      ],
      "stateMutability": "view",
      "type": "function"
    },
    {
      "inputs": [],
      "name": "winningPrice",
      "outputs": [
        {
          "internalType": "uint256",
          "name": "",
          "type": "uint256"
        }
      ],
      "stateMutability": "view",
      "type": "function"
    }
  ],
  "bytecode": "0x608060405267016345785d8a0000600255426005556000600660006101000a81548160ff0219169083600281111562000061577f4e487b7100000000000000000000000000000000000000000000000000000000600052602160045260246000fd5b02179055503480156200007357600080fd5b50604051620017f8380380620017f88339818101604052810190620000999190620000f7565b806000806101000a81548173ffffffffffffffffffffffffffffffffffffffff021916908373ffffffffffffffffffffffffffffffffffffffff1602179055505062000171565b600081519050620000f18162000157565b92915050565b6000602082840312156200010a57600080fd5b60006200011a84828501620000e0565b91505092915050565b6000620001308262000137565b9050919050565b600073ffffffffffffffffffffffffffffffffffffffff82169050919050565b620001628162000123565b81146200016e57600080fd5b50565b61167780620001816000396000f3fe6080604052600436106100c25760003560e01c80638e7ea5b21161007f578063e97dcb6211610059578063e97dcb6214610248578063efb98bcf14610252578063efbe1c1c1461027d578063f71d96cb14610294576100c2565b80638e7ea5b2146101c957806395805dad146101f4578063c1f526041461021d576100c2565b8063072ea61c146100c757806316ada547146100f2578063200d2ed21461011d5780633c20ee6e14610148578063481c6a75146101735780638b5b9ccc1461019e575b600080fd5b3480156100d357600080fd5b506100dc6102d1565b6040516100e991906112c9565b60405180910390f35b3480156100fe57600080fd5b506101076102d7565b60405161011491906112c9565b60405180910390f35b34801561012957600080fd5b506101326102dd565b60405161013f91906111ae565b60405180910390f35b34801561015457600080fd5b5061015d6102f0565b60405161016a91906112c9565b60405180910390f35b34801561017f57600080fd5b506101886102f6565b6040516101959190611148565b60405180910390f35b3480156101aa57600080fd5b506101b361031a565b6040516101c0919061118c565b60405180910390f35b3480156101d557600080fd5b506101de6103a8565b6040516101eb9190611148565b60405180910390f35b34801561020057600080fd5b5061021b60048036038101906102169190610cf9565b6103d2565b005b34801561022957600080fd5b50610232610506565b60405161023f91906112c9565b60405180910390f35b61025061050e565b005b34801561025e57600080fd5b50610267610708565b60405161027491906112c9565b60405180910390f35b34801561028957600080fd5b506102926107fa565b005b3480156102a057600080fd5b506102bb60048036038101906102b69190610cf9565b610af3565b6040516102c89190611148565b60405180910390f35b60025481565b60055481565b600660009054906101000a900460ff1681565b60045481565b60008054906101000a900473ffffffffffffffffffffffffffffffffffffffff1681565b6060600180548060200260200160405190810160405280929190818152602001828054801561039e57602002820191906000526020600020905b8160009054906101000a900473ffffffffffffffffffffffffffffffffffffffff1673ffffffffffffffffffffffffffffffffffffffff1681526020019060010190808311610354575b5050505050905090565b6000600360009054906101000a900473ffffffffffffffffffffffffffffffffffffffff16905090565b6000600281111561040c577f4e487b7100000000000000000000000000000000000000000000000000000000600052602160045260246000fd5b600660009054906101000a900460ff166002811115610454577f4e487b7100000000000000000000000000000000000000000000000000000000600052602160045260246000fd5b14610494576040517f08c379a000000000000000000000000000000000000000000000000000000000815260040161048b906111e9565b60405180910390fd5b6001600660006101000a81548160ff021916908360028111156104e0577f4e487b7100000000000000000000000000000000000000000000000000000000600052602160045260246000fd5b0217905550603c816104f291906113bc565b426104fd9190611366565b60048190555050565b600047905090565b426004541015610553576040517f08c379a000000000000000000000000000000000000000000000000000000000815260040161054a90611209565b60405180910390fd5b61055c33610b32565b1561059c576040517f08c379a000000000000000000000000000000000000000000000000000000000815260040161059390611269565b60405180910390fd5b6002543410156105e1576040517f08c379a00000000000000000000000000000000000000000000000000000000081526004016105d890611249565b60405180910390fd5b6001600281111561061b577f4e487b7100000000000000000000000000000000000000000000000000000000600052602160045260246000fd5b600660009054906101000a900460ff166002811115610663577f4e487b7100000000000000000000000000000000000000000000000000000000600052602160045260246000fd5b146106a3576040517f08c379a000000000000000000000000000000000000000000000000000000000815260040161069a906111c9565b60405180910390fd5b6001339080600181540180825580915050600190039060005260206000200160009091909190916101000a81548173ffffffffffffffffffffffffffffffffffffffff021916908373ffffffffffffffffffffffffffffffffffffffff160217905550565b600042600454116107245761071b6107fa565b600090506107f7565b60028081111561075d577f4e487b7100000000000000000000000000000000000000000000000000000000600052602160045260246000fd5b600660009054906101000a900460ff1660028111156107a5577f4e487b7100000000000000000000000000000000000000000000000000000000600052602160045260246000fd5b14156107e6576040517f08c379a00000000000000000000000000000000000000000000000000000000081526004016107dd90611289565b60405180910390fd5b426004546107f49190611416565b90505b90565b60045442101561083f576040517f08c379a000000000000000000000000000000000000000000000000000000000815260040161083690611229565b60405180910390fd5b6002600660006101000a81548160ff0219169083600281111561088b577f4e487b7100000000000000000000000000000000000000000000000000000000600052602160045260246000fd5b02179055506000600180549050116108d8576040517f08c379a00000000000000000000000000000000000000000000000000000000081526004016108cf906112a9565b60405180910390fd5b60006001805490506108e8610c07565b6108f29190611538565b90506001818154811061092e577f4e487b7100000000000000000000000000000000000000000000000000000000600052603260045260246000fd5b9060005260206000200160009054906101000a900473ffffffffffffffffffffffffffffffffffffffff16600360006101000a81548173ffffffffffffffffffffffffffffffffffffffff021916908373ffffffffffffffffffffffffffffffffffffffff16021790555060006109a3610506565b9050600360009054906101000a900473ffffffffffffffffffffffffffffffffffffffff1673ffffffffffffffffffffffffffffffffffffffff166108fc479081150290604051600060405180830381858888f19350505050158015610a0d573d6000803e3d6000fd5b50600067ffffffffffffffff811115610a4f577f4e487b7100000000000000000000000000000000000000000000000000000000600052604160045260246000fd5b604051908082528060200260200182016040528015610a7d5781602001602082028036833780820191505090505b5060019080519060200190610a93929190610c3d565b507f3cf1af53e79884a92609ce59db1ec9f584d88e2d14c8eaba43a21db81318301e600360009054906101000a900473ffffffffffffffffffffffffffffffffffffffff1682604051610ae7929190611163565b60405180910390a15050565b60018181548110610b0357600080fd5b906000526020600020016000915054906101000a900473ffffffffffffffffffffffffffffffffffffffff1681565b600080600090505b600180549050811015610bfc578273ffffffffffffffffffffffffffffffffffffffff1660018281548110610b98577f4e487b7100000000000000000000000000000000000000000000000000000000600052603260045260246000fd5b9060005260206000200160009054906101000a900473ffffffffffffffffffffffffffffffffffffffff1673ffffffffffffffffffffffffffffffffffffffff161415610be9576001915050610c02565b8080610bf4906114e5565b915050610b3a565b50600090505b919050565b600044426001604051602001610c1f9392919061110f565b6040516020818303038152906040528051906020012060001c905090565b828054828255906000526020600020908101928215610cb6579160200282015b82811115610cb55782518260006101000a81548173ffffffffffffffffffffffffffffffffffffffff021916908373ffffffffffffffffffffffffffffffffffffffff16021790555091602001919060010190610c5d565b5b509050610cc39190610cc7565b5090565b5b80821115610ce0576000816000905550600101610cc8565b5090565b600081359050610cf38161162a565b92915050565b600060208284031215610d0b57600080fd5b6000610d1984828501610ce4565b91505092915050565b6000610d2e8383610d52565b60208301905092915050565b6000610d468383610d70565b60208301905092915050565b610d5b8161146a565b82525050565b610d6a8161146a565b82525050565b610d798161146a565b82525050565b6000610d8a82611309565b610d948185611339565b9350610d9f836112e4565b8060005b83811015610dd0578151610db78882610d22565b9750610dc28361131f565b925050600181019050610da3565b5085935050505092915050565b6000610de882611314565b610df2818561134a565b9350610dfd836112f4565b8060005b83811015610e3557610e12826115f6565b610e1c8882610d3a565b9750610e278361132c565b925050600181019050610e01565b5085935050505092915050565b610e4b816114b9565b82525050565b6000610e5e602583611355565b91507f6c6f747465727920686173206e6f742073746172746564206f7220697473206560008301527f6e6465642e0000000000000000000000000000000000000000000000000000006020830152604082019050919050565b6000610ec4602a83611355565b91507f6c6f74746572792068617320616c7265616479206265656e207374617274656460008301527f206f7220656e6465642e000000000000000000000000000000000000000000006020830152604082019050919050565b6000610f2a600b83611355565b91507f74696d652069732075702e0000000000000000000000000000000000000000006000830152602082019050919050565b6000610f6a602483611355565b91507f796f752063616e206e6f7420656e64206c6f7474657279206265666f7265207460008301527f696d652e000000000000000000000000000000000000000000000000000000006020830152604082019050919050565b6000610fd0602083611355565b91507f656e74727920666565206973206c657373207468656e20302e312065746865726000830152602082019050919050565b6000611010601d83611355565b91507f796f752061726520616c72656164792061207061727469636970616e740000006000830152602082019050919050565b6000611050602483611355565b91507f6c6f7474657279206973206e6f742073746172746564206f722069747320656e60008301527f6465642e000000000000000000000000000000000000000000000000000000006020830152604082019050919050565b60006110b6600e83611355565b91507f30207061727469636970616e74730000000000000000000000000000000000006000830152602082019050919050565b6110f2816114af565b82525050565b611109611104826114af565b61152e565b82525050565b600061111b82866110f8565b60208201915061112b82856110f8565b60208201915061113b8284610ddd565b9150819050949350505050565b600060208201905061115d6000830184610d61565b92915050565b60006040820190506111786000830185610d61565b61118560208301846110e9565b9392505050565b600060208201905081810360008301526111a68184610d7f565b905092915050565b60006020820190506111c36000830184610e42565b92915050565b600060208201905081810360008301526111e281610e51565b9050919050565b6000602082019050818103600083015261120281610eb7565b9050919050565b6000602082019050818103600083015261122281610f1d565b9050919050565b6000602082019050818103600083015261124281610f5d565b9050919050565b6000602082019050818103600083015261126281610fc3565b9050919050565b6000602082019050818103600083015261128281611003565b9050919050565b600060208201905081810360008301526112a281611043565b9050919050565b600060208201905081810360008301526112c2816110a9565b9050919050565b60006020820190506112de60008301846110e9565b92915050565b6000819050602082019050919050565b60008190508160005260206000209050919050565b600081519050919050565b600081549050919050565b6000602082019050919050565b6000600182019050919050565b600082825260208201905092915050565b600081905092915050565b600082825260208201905092915050565b6000611371826114af565b915061137c836114af565b9250827fffffffffffffffffffffffffffffffffffffffffffffffffffffffffffffffff038211156113b1576113b0611569565b5b828201905092915050565b60006113c7826114af565b91506113d2836114af565b9250817fffffffffffffffffffffffffffffffffffffffffffffffffffffffffffffffff048311821515161561140b5761140a611569565b5b828202905092915050565b6000611421826114af565b915061142c836114af565b92508282101561143f5761143e611569565b5b828203905092915050565b600073ffffffffffffffffffffffffffffffffffffffff82169050919050565b60006114758261148f565b9050919050565b600081905061148a82611616565b919050565b600073ffffffffffffffffffffffffffffffffffffffff82169050919050565b6000819050919050565b60006114c48261147c565b9050919050565b60006114de6114d983611609565b61144a565b9050919050565b60006114f0826114af565b91507fffffffffffffffffffffffffffffffffffffffffffffffffffffffffffffffff82141561152357611522611569565b5b600182019050919050565b6000819050919050565b6000611543826114af565b915061154e836114af565b92508261155e5761155d611598565b5b828206905092915050565b7f4e487b7100000000000000000000000000000000000000000000000000000000600052601160045260246000fd5b7f4e487b7100000000000000000000000000000000000000000000000000000000600052601260045260246000fd5b7f4e487b7100000000000000000000000000000000000000000000000000000000600052602160045260246000fd5b600061160282546114cb565b9050919050565b60008160001c9050919050565b60038110611627576116266115c7565b5b50565b611633816114af565b811461163e57600080fd5b5056fea26469706673582212201ed1094cd097d94e5bd82aeac6e1f8368503d42531991dc5e84246f3ff60ea2664736f6c63430008000033",
  "linkReferences": {},
  "deployedLinkReferences": {}
}