{
  "_format": "hh-sol-artifact-1",
  "contractName": "Lottery",
  "sourceName": "contracts/Lottery.sol",
  "abi": [
    {
      "inputs": [],
      "stateMutability": "nonpayable",
      "type": "constructor"
    },
    {
      "anonymous": false,
      "inputs": [
        {
          "indexed": false,
          "internalType": "address",
          "name": "winner",
          "type": "address"
        },
        {
          "indexed": false,
          "internalType": "uint256",
          "name": "winningPrice",
          "type": "uint256"
        }
      ],
      "name": "WinnerDeclared",
      "type": "event"
    },
    {
      "inputs": [],
      "name": "_end",
      "outputs": [
        {
          "internalType": "uint256",
          "name": "",
          "type": "uint256"
        }
      ],
      "stateMutability": "view",
      "type": "function"
    },
    {
      "inputs": [],
      "name": "end",
      "outputs": [],
      "stateMutability": "nonpayable",
      "type": "function"
    },
    {
      "inputs": [],
      "name": "enter",
      "outputs": [],
      "stateMutability": "payable",
      "type": "function"
    },
    {
      "inputs": [],
      "name": "entryFee",
      "outputs": [
        {
          "internalType": "uint256",
          "name": "",
          "type": "uint256"
        }
      ],
      "stateMutability": "view",
      "type": "function"
    },
    {
      "inputs": [],
      "name": "getPlayers",
      "outputs": [
        {
          "internalType": "address[]",
          "name": "",
          "type": "address[]"
        }
      ],
      "stateMutability": "view",
      "type": "function"
    },
    {
      "inputs": [],
      "name": "getRemainingTime",
      "outputs": [
        {
          "internalType": "uint256",
          "name": "",
          "type": "uint256"
        }
      ],
      "stateMutability": "nonpayable",
      "type": "function"
    },
    {
      "inputs": [],
      "name": "getWinner",
      "outputs": [
        {
          "internalType": "address",
          "name": "",
          "type": "address"
        }
      ],
      "stateMutability": "view",
      "type": "function"
    },
    {
      "inputs": [],
      "name": "manager",
      "outputs": [
        {
          "internalType": "address",
          "name": "",
          "type": "address"
        }
      ],
      "stateMutability": "view",
      "type": "function"
    },
    {
      "inputs": [
        {
          "internalType": "uint256",
          "name": "",
          "type": "uint256"
        }
      ],
      "name": "players",
      "outputs": [
        {
          "internalType": "address",
          "name": "",
          "type": "address"
        }
      ],
      "stateMutability": "view",
      "type": "function"
    },
    {
      "inputs": [
        {
          "internalType": "uint256",
          "name": "_timeInMinutes",
          "type": "uint256"
        }
      ],
      "name": "start",
      "outputs": [],
      "stateMutability": "nonpayable",
      "type": "function"
    },
    {
      "inputs": [],
      "name": "status",
      "outputs": [
        {
          "internalType": "enum Lottery.LotteryStatus",
          "name": "",
          "type": "uint8"
        }
      ],
      "stateMutability": "view",
      "type": "function"
    },
    {
      "inputs": [],
      "name": "time",
      "outputs": [
        {
          "internalType": "uint256",
          "name": "",
          "type": "uint256"
        }
      ],
      "stateMutability": "view",
      "type": "function"
    },
    {
      "inputs": [],
      "name": "winningPrice",
      "outputs": [
        {
          "internalType": "uint256",
          "name": "",
          "type": "uint256"
        }
      ],
      "stateMutability": "view",
      "type": "function"
    }
  ],
  "bytecode": "0x608060405267016345785d8a0000600255426005556000600660006101000a81548160ff02191690836002811115610060577f4e487b7100000000000000000000000000000000000000000000000000000000600052602160045260246000fd5b021790555034801561007157600080fd5b50336000806101000a81548173ffffffffffffffffffffffffffffffffffffffff021916908373ffffffffffffffffffffffffffffffffffffffff160217905550611765806100c16000396000f3fe6080604052600436106100c25760003560e01c80638e7ea5b21161007f578063e97dcb6211610059578063e97dcb6214610248578063efb98bcf14610252578063efbe1c1c1461027d578063f71d96cb14610294576100c2565b80638e7ea5b2146101c957806395805dad146101f4578063c1f526041461021d576100c2565b8063072ea61c146100c757806316ada547146100f2578063200d2ed21461011d5780633c20ee6e14610148578063481c6a75146101735780638b5b9ccc1461019e575b600080fd5b3480156100d357600080fd5b506100dc6102d1565b6040516100e991906113b7565b60405180910390f35b3480156100fe57600080fd5b506101076102d7565b60405161011491906113b7565b60405180910390f35b34801561012957600080fd5b506101326102dd565b60405161013f919061127c565b60405180910390f35b34801561015457600080fd5b5061015d6102f0565b60405161016a91906113b7565b60405180910390f35b34801561017f57600080fd5b506101886102f6565b6040516101959190611216565b60405180910390f35b3480156101aa57600080fd5b506101b361031a565b6040516101c0919061125a565b60405180910390f35b3480156101d557600080fd5b506101de6103a8565b6040516101eb9190611216565b60405180910390f35b34801561020057600080fd5b5061021b60048036038101906102169190610d87565b6103d2565b005b34801561022957600080fd5b50610232610594565b60405161023f91906113b7565b60405180910390f35b61025061059c565b005b34801561025e57600080fd5b50610267610796565b60405161027491906113b7565b60405180910390f35b34801561028957600080fd5b50610292610888565b005b3480156102a057600080fd5b506102bb60048036038101906102b69190610d87565b610b81565b6040516102c89190611216565b60405180910390f35b60025481565b60055481565b600660009054906101000a900460ff1681565b60045481565b60008054906101000a900473ffffffffffffffffffffffffffffffffffffffff1681565b6060600180548060200260200160405190810160405280929190818152602001828054801561039e57602002820191906000526020600020905b8160009054906101000a900473ffffffffffffffffffffffffffffffffffffffff1673ffffffffffffffffffffffffffffffffffffffff1681526020019060010190808311610354575b5050505050905090565b6000600360009054906101000a900473ffffffffffffffffffffffffffffffffffffffff16905090565b60008054906101000a900473ffffffffffffffffffffffffffffffffffffffff1673ffffffffffffffffffffffffffffffffffffffff163373ffffffffffffffffffffffffffffffffffffffff1614610460576040517f08c379a000000000000000000000000000000000000000000000000000000000815260040161045790611397565b60405180910390fd5b6000600281111561049a577f4e487b7100000000000000000000000000000000000000000000000000000000600052602160045260246000fd5b600660009054906101000a900460ff1660028111156104e2577f4e487b7100000000000000000000000000000000000000000000000000000000600052602160045260246000fd5b14610522576040517f08c379a0000000000000000000000000000000000000000000000000000000008152600401610519906112b7565b60405180910390fd5b6001600660006101000a81548160ff0219169083600281111561056e577f4e487b7100000000000000000000000000000000000000000000000000000000600052602160045260246000fd5b0217905550603c8161058091906114aa565b4261058b9190611454565b60048190555050565b600047905090565b4260045410156105e1576040517f08c379a00000000000000000000000000000000000000000000000000000000081526004016105d8906112d7565b60405180910390fd5b6105ea33610bc0565b1561062a576040517f08c379a000000000000000000000000000000000000000000000000000000000815260040161062190611337565b60405180910390fd5b60025434101561066f576040517f08c379a000000000000000000000000000000000000000000000000000000000815260040161066690611317565b60405180910390fd5b600160028111156106a9577f4e487b7100000000000000000000000000000000000000000000000000000000600052602160045260246000fd5b600660009054906101000a900460ff1660028111156106f1577f4e487b7100000000000000000000000000000000000000000000000000000000600052602160045260246000fd5b14610731576040517f08c379a000000000000000000000000000000000000000000000000000000000815260040161072890611297565b60405180910390fd5b6001339080600181540180825580915050600190039060005260206000200160009091909190916101000a81548173ffffffffffffffffffffffffffffffffffffffff021916908373ffffffffffffffffffffffffffffffffffffffff160217905550565b600042600454116107b2576107a9610888565b60009050610885565b6002808111156107eb577f4e487b7100000000000000000000000000000000000000000000000000000000600052602160045260246000fd5b600660009054906101000a900460ff166002811115610833577f4e487b7100000000000000000000000000000000000000000000000000000000600052602160045260246000fd5b1415610874576040517f08c379a000000000000000000000000000000000000000000000000000000000815260040161086b90611357565b60405180910390fd5b426004546108829190611504565b90505b90565b6004544210156108cd576040517f08c379a00000000000000000000000000000000000000000000000000000000081526004016108c4906112f7565b60405180910390fd5b6002600660006101000a81548160ff02191690836002811115610919577f4e487b7100000000000000000000000000000000000000000000000000000000600052602160045260246000fd5b0217905550600060018054905011610966576040517f08c379a000000000000000000000000000000000000000000000000000000000815260040161095d90611377565b60405180910390fd5b6000600180549050610976610c95565b6109809190611626565b9050600181815481106109bc577f4e487b7100000000000000000000000000000000000000000000000000000000600052603260045260246000fd5b9060005260206000200160009054906101000a900473ffffffffffffffffffffffffffffffffffffffff16600360006101000a81548173ffffffffffffffffffffffffffffffffffffffff021916908373ffffffffffffffffffffffffffffffffffffffff1602179055506000610a31610594565b9050600360009054906101000a900473ffffffffffffffffffffffffffffffffffffffff1673ffffffffffffffffffffffffffffffffffffffff166108fc479081150290604051600060405180830381858888f19350505050158015610a9b573d6000803e3d6000fd5b50600067ffffffffffffffff811115610add577f4e487b7100000000000000000000000000000000000000000000000000000000600052604160045260246000fd5b604051908082528060200260200182016040528015610b0b5781602001602082028036833780820191505090505b5060019080519060200190610b21929190610ccb565b507f3cf1af53e79884a92609ce59db1ec9f584d88e2d14c8eaba43a21db81318301e600360009054906101000a900473ffffffffffffffffffffffffffffffffffffffff1682604051610b75929190611231565b60405180910390a15050565b60018181548110610b9157600080fd5b906000526020600020016000915054906101000a900473ffffffffffffffffffffffffffffffffffffffff1681565b600080600090505b600180549050811015610c8a578273ffffffffffffffffffffffffffffffffffffffff1660018281548110610c26577f4e487b7100000000000000000000000000000000000000000000000000000000600052603260045260246000fd5b9060005260206000200160009054906101000a900473ffffffffffffffffffffffffffffffffffffffff1673ffffffffffffffffffffffffffffffffffffffff161415610c77576001915050610c90565b8080610c82906115d3565b915050610bc8565b50600090505b919050565b600044426001604051602001610cad939291906111dd565b6040516020818303038152906040528051906020012060001c905090565b828054828255906000526020600020908101928215610d44579160200282015b82811115610d435782518260006101000a81548173ffffffffffffffffffffffffffffffffffffffff021916908373ffffffffffffffffffffffffffffffffffffffff16021790555091602001919060010190610ceb565b5b509050610d519190610d55565b5090565b5b80821115610d6e576000816000905550600101610d56565b5090565b600081359050610d8181611718565b92915050565b600060208284031215610d9957600080fd5b6000610da784828501610d72565b91505092915050565b6000610dbc8383610de0565b60208301905092915050565b6000610dd48383610dfe565b60208301905092915050565b610de981611558565b82525050565b610df881611558565b82525050565b610e0781611558565b82525050565b6000610e18826113f7565b610e228185611427565b9350610e2d836113d2565b8060005b83811015610e5e578151610e458882610db0565b9750610e508361140d565b925050600181019050610e31565b5085935050505092915050565b6000610e7682611402565b610e808185611438565b9350610e8b836113e2565b8060005b83811015610ec357610ea0826116e4565b610eaa8882610dc8565b9750610eb58361141a565b925050600181019050610e8f565b5085935050505092915050565b610ed9816115a7565b82525050565b6000610eec602583611443565b91507f6c6f747465727920686173206e6f742073746172746564206f7220697473206560008301527f6e6465642e0000000000000000000000000000000000000000000000000000006020830152604082019050919050565b6000610f52602a83611443565b91507f6c6f74746572792068617320616c7265616479206265656e207374617274656460008301527f206f7220656e6465642e000000000000000000000000000000000000000000006020830152604082019050919050565b6000610fb8600b83611443565b91507f74696d652069732075702e0000000000000000000000000000000000000000006000830152602082019050919050565b6000610ff8602483611443565b91507f796f752063616e206e6f7420656e64206c6f7474657279206265666f7265207460008301527f696d652e000000000000000000000000000000000000000000000000000000006020830152604082019050919050565b600061105e602083611443565b91507f656e74727920666565206973206c657373207468656e20302e312065746865726000830152602082019050919050565b600061109e601d83611443565b91507f796f752061726520616c72656164792061207061727469636970616e740000006000830152602082019050919050565b60006110de602483611443565b91507f6c6f7474657279206973206e6f742073746172746564206f722069747320656e60008301527f6465642e000000000000000000000000000000000000000000000000000000006020830152604082019050919050565b6000611144600e83611443565b91507f30207061727469636970616e74730000000000000000000000000000000000006000830152602082019050919050565b6000611184601783611443565b91507f796f7520617265206e6f7420746865206d616e616765720000000000000000006000830152602082019050919050565b6111c08161159d565b82525050565b6111d76111d28261159d565b61161c565b82525050565b60006111e982866111c6565b6020820191506111f982856111c6565b6020820191506112098284610e6b565b9150819050949350505050565b600060208201905061122b6000830184610def565b92915050565b60006040820190506112466000830185610def565b61125360208301846111b7565b9392505050565b600060208201905081810360008301526112748184610e0d565b905092915050565b60006020820190506112916000830184610ed0565b92915050565b600060208201905081810360008301526112b081610edf565b9050919050565b600060208201905081810360008301526112d081610f45565b9050919050565b600060208201905081810360008301526112f081610fab565b9050919050565b6000602082019050818103600083015261131081610feb565b9050919050565b6000602082019050818103600083015261133081611051565b9050919050565b6000602082019050818103600083015261135081611091565b9050919050565b60006020820190508181036000830152611370816110d1565b9050919050565b6000602082019050818103600083015261139081611137565b9050919050565b600060208201905081810360008301526113b081611177565b9050919050565b60006020820190506113cc60008301846111b7565b92915050565b6000819050602082019050919050565b60008190508160005260206000209050919050565b600081519050919050565b600081549050919050565b6000602082019050919050565b6000600182019050919050565b600082825260208201905092915050565b600081905092915050565b600082825260208201905092915050565b600061145f8261159d565b915061146a8361159d565b9250827fffffffffffffffffffffffffffffffffffffffffffffffffffffffffffffffff0382111561149f5761149e611657565b5b828201905092915050565b60006114b58261159d565b91506114c08361159d565b9250817fffffffffffffffffffffffffffffffffffffffffffffffffffffffffffffffff04831182151516156114f9576114f8611657565b5b828202905092915050565b600061150f8261159d565b915061151a8361159d565b92508282101561152d5761152c611657565b5b828203905092915050565b600073ffffffffffffffffffffffffffffffffffffffff82169050919050565b60006115638261157d565b9050919050565b600081905061157882611704565b919050565b600073ffffffffffffffffffffffffffffffffffffffff82169050919050565b6000819050919050565b60006115b28261156a565b9050919050565b60006115cc6115c7836116f7565b611538565b9050919050565b60006115de8261159d565b91507fffffffffffffffffffffffffffffffffffffffffffffffffffffffffffffffff82141561161157611610611657565b5b600182019050919050565b6000819050919050565b60006116318261159d565b915061163c8361159d565b92508261164c5761164b611686565b5b828206905092915050565b7f4e487b7100000000000000000000000000000000000000000000000000000000600052601160045260246000fd5b7f4e487b7100000000000000000000000000000000000000000000000000000000600052601260045260246000fd5b7f4e487b7100000000000000000000000000000000000000000000000000000000600052602160045260246000fd5b60006116f082546115b9565b9050919050565b60008160001c9050919050565b60038110611715576117146116b5565b5b50565b6117218161159d565b811461172c57600080fd5b5056fea2646970667358221220c96d7cc63acf590b2107dd3a5578bf60d98261afa40b56355703af3e2b816b1d64736f6c63430008000033",
  "linkReferences": {},
  "deployedLinkReferences": {}
}