{
  "_format": "hh-sol-artifact-1",
  "contractName": "AceToken",
  "sourceName": "contracts/AceToken.sol",
  "abi": [
    {
      "inputs": [
        {
          "internalType": "uint256",
          "name": "_initialSupply",
          "type": "uint256"
        }
      ],
      "stateMutability": "nonpayable",
      "type": "constructor"
    },
    {
      "anonymous": false,
      "inputs": [
        {
          "indexed": true,
          "internalType": "address",
          "name": "_owner",
          "type": "address"
        },
        {
          "indexed": true,
          "internalType": "address",
          "name": "_spender",
          "type": "address"
        },
        {
          "indexed": false,
          "internalType": "uint256",
          "name": "_value",
          "type": "uint256"
        }
      ],
      "name": "Approval",
      "type": "event"
    },
    {
      "anonymous": false,
      "inputs": [
        {
          "indexed": true,
          "internalType": "address",
          "name": "_from",
          "type": "address"
        },
        {
          "indexed": true,
          "internalType": "address",
          "name": "_to",
          "type": "address"
        },
        {
          "indexed": false,
          "internalType": "uint256",
          "name": "_value",
          "type": "uint256"
        }
      ],
      "name": "Transfer",
      "type": "event"
    },
    {
      "inputs": [
        {
          "internalType": "address",
          "name": "",
          "type": "address"
        },
        {
          "internalType": "address",
          "name": "",
          "type": "address"
        }
      ],
      "name": "allowance",
      "outputs": [
        {
          "internalType": "uint256",
          "name": "",
          "type": "uint256"
        }
      ],
      "stateMutability": "view",
      "type": "function"
    },
    {
      "inputs": [
        {
          "internalType": "address",
          "name": "_spender",
          "type": "address"
        },
        {
          "internalType": "uint256",
          "name": "_value",
          "type": "uint256"
        }
      ],
      "name": "approve",
      "outputs": [
        {
          "internalType": "bool",
          "name": "success",
          "type": "bool"
        }
      ],
      "stateMutability": "nonpayable",
      "type": "function"
    },
    {
      "inputs": [
        {
          "internalType": "address",
          "name": "",
          "type": "address"
        }
      ],
      "name": "balanceOf",
      "outputs": [
        {
          "internalType": "uint256",
          "name": "",
          "type": "uint256"
        }
      ],
      "stateMutability": "view",
      "type": "function"
    },
    {
      "inputs": [],
      "name": "decimals",
      "outputs": [
        {
          "internalType": "uint256",
          "name": "",
          "type": "uint256"
        }
      ],
      "stateMutability": "view",
      "type": "function"
    },
    {
      "inputs": [],
      "name": "name",
      "outputs": [
        {
          "internalType": "string",
          "name": "",
          "type": "string"
        }
      ],
      "stateMutability": "view",
      "type": "function"
    },
    {
      "inputs": [],
      "name": "standard",
      "outputs": [
        {
          "internalType": "string",
          "name": "",
          "type": "string"
        }
      ],
      "stateMutability": "view",
      "type": "function"
    },
    {
      "inputs": [],
      "name": "symbol",
      "outputs": [
        {
          "internalType": "string",
          "name": "",
          "type": "string"
        }
      ],
      "stateMutability": "view",
      "type": "function"
    },
    {
      "inputs": [],
      "name": "totalSupply",
      "outputs": [
        {
          "internalType": "uint256",
          "name": "",
          "type": "uint256"
        }
      ],
      "stateMutability": "view",
      "type": "function"
    },
    {
      "inputs": [
        {
          "internalType": "address",
          "name": "_to",
          "type": "address"
        },
        {
          "internalType": "uint256",
          "name": "_value",
          "type": "uint256"
        }
      ],
      "name": "transfer",
      "outputs": [
        {
          "internalType": "bool",
          "name": "success",
          "type": "bool"
        }
      ],
      "stateMutability": "nonpayable",
      "type": "function"
    },
    {
      "inputs": [
        {
          "internalType": "address",
          "name": "_from",
          "type": "address"
        },
        {
          "internalType": "address",
          "name": "_to",
          "type": "address"
        },
        {
          "internalType": "uint256",
          "name": "_value",
          "type": "uint256"
        }
      ],
      "name": "transferFrom",
      "outputs": [
        {
          "internalType": "bool",
          "name": "success",
          "type": "bool"
        }
      ],
      "stateMutability": "nonpayable",
      "type": "function"
    }
  ],
  "bytecode": "0x60806040526040518060400160405280600881526020017f416365546f6b656e000000000000000000000000000000000000000000000000815250600190805190602001906200005192919062000178565b506040518060400160405280600381526020017f4143450000000000000000000000000000000000000000000000000000000000815250600290805190602001906200009f92919062000178565b506040518060400160405280600e81526020017f41636520546f6b656e2076312e3000000000000000000000000000000000000081525060039080519060200190620000ed92919062000178565b5060126004553480156200010057600080fd5b50604051620011d8380380620011d883398181016040528101906200012691906200023f565b8060008190555080600560003073ffffffffffffffffffffffffffffffffffffffff1673ffffffffffffffffffffffffffffffffffffffff1681526020019081526020016000208190555050620002f4565b828054620001869062000275565b90600052602060002090601f016020900481019282620001aa5760008555620001f6565b82601f10620001c557805160ff1916838001178555620001f6565b82800160010185558215620001f6579182015b82811115620001f5578251825591602001919060010190620001d8565b5b50905062000205919062000209565b5090565b5b80821115620002245760008160009055506001016200020a565b5090565b6000815190506200023981620002da565b92915050565b6000602082840312156200025257600080fd5b6000620002628482850162000228565b91505092915050565b6000819050919050565b600060028204905060018216806200028e57607f821691505b60208210811415620002a557620002a4620002ab565b5b50919050565b7f4e487b7100000000000000000000000000000000000000000000000000000000600052602260045260246000fd5b620002e5816200026b565b8114620002f157600080fd5b50565b610ed480620003046000396000f3fe608060405234801561001057600080fd5b506004361061009e5760003560e01c80635a3b7e42116100665780635a3b7e421461015d57806370a082311461017b57806395d89b41146101ab578063a9059cbb146101c9578063dd62ed3e146101f95761009e565b806306fdde03146100a3578063095ea7b3146100c157806318160ddd146100f157806323b872dd1461010f578063313ce5671461013f575b600080fd5b6100ab610229565b6040516100b89190610c11565b60405180910390f35b6100db60048036038101906100d69190610a7d565b6102b7565b6040516100e89190610bf6565b60405180910390f35b6100f96103a9565b6040516101069190610c93565b60405180910390f35b61012960048036038101906101249190610a2e565b6103af565b6040516101369190610bf6565b60405180910390f35b6101476106a1565b6040516101549190610c93565b60405180910390f35b6101656106a7565b6040516101729190610c11565b60405180910390f35b610195600480360381019061019091906109c9565b610735565b6040516101a29190610c93565b60405180910390f35b6101b361074d565b6040516101c09190610c11565b60405180910390f35b6101e360048036038101906101de9190610a7d565b6107db565b6040516101f09190610bf6565b60405180910390f35b610213600480360381019061020e91906109f2565b61097a565b6040516102209190610c93565b60405180910390f35b6001805461023690610dcf565b80601f016020809104026020016040519081016040528092919081815260200182805461026290610dcf565b80156102af5780601f10610284576101008083540402835291602001916102af565b820191906000526020600020905b81548152906001019060200180831161029257829003601f168201915b505050505081565b600081600660003373ffffffffffffffffffffffffffffffffffffffff1673ffffffffffffffffffffffffffffffffffffffff16815260200190815260200160002060008573ffffffffffffffffffffffffffffffffffffffff1673ffffffffffffffffffffffffffffffffffffffff168152602001908152602001600020819055508273ffffffffffffffffffffffffffffffffffffffff163373ffffffffffffffffffffffffffffffffffffffff167f8c5be1e5ebec7d5bd14f71427d1e84f3dd0314c0f7b2291e5b200ac8c7c3b925846040516103979190610c93565b60405180910390a36001905092915050565b60005481565b6000600560008573ffffffffffffffffffffffffffffffffffffffff1673ffffffffffffffffffffffffffffffffffffffff16815260200190815260200160002054821115610433576040517f08c379a000000000000000000000000000000000000000000000000000000000815260040161042a90610c33565b60405180910390fd5b600660008573ffffffffffffffffffffffffffffffffffffffff1673ffffffffffffffffffffffffffffffffffffffff16815260200190815260200160002060003373ffffffffffffffffffffffffffffffffffffffff1673ffffffffffffffffffffffffffffffffffffffff168152602001908152602001600020548211156104f2576040517f08c379a00000000000000000000000000000000000000000000000000000000081526004016104e990610c73565b60405180910390fd5b81600560008673ffffffffffffffffffffffffffffffffffffffff1673ffffffffffffffffffffffffffffffffffffffff16815260200190815260200160002060008282546105419190610d20565b9250508190555081600560008573ffffffffffffffffffffffffffffffffffffffff1673ffffffffffffffffffffffffffffffffffffffff16815260200190815260200160002060008282546105979190610cca565b9250508190555081600660008673ffffffffffffffffffffffffffffffffffffffff1673ffffffffffffffffffffffffffffffffffffffff16815260200190815260200160002060003373ffffffffffffffffffffffffffffffffffffffff1673ffffffffffffffffffffffffffffffffffffffff168152602001908152602001600020600082825461062a9190610d20565b925050819055508273ffffffffffffffffffffffffffffffffffffffff168473ffffffffffffffffffffffffffffffffffffffff167fddf252ad1be2c89b69c2b068fc378daa952ba7f163c4a11628f55a4df523b3ef8460405161068e9190610c93565b60405180910390a3600190509392505050565b60045481565b600380546106b490610dcf565b80601f01602080910402602001604051908101604052809291908181526020018280546106e090610dcf565b801561072d5780601f106107025761010080835404028352916020019161072d565b820191906000526020600020905b81548152906001019060200180831161071057829003601f168201915b505050505081565b60056020528060005260406000206000915090505481565b6002805461075a90610dcf565b80601f016020809104026020016040519081016040528092919081815260200182805461078690610dcf565b80156107d35780601f106107a8576101008083540402835291602001916107d3565b820191906000526020600020905b8154815290600101906020018083116107b657829003601f168201915b505050505081565b600081600560003073ffffffffffffffffffffffffffffffffffffffff1673ffffffffffffffffffffffffffffffffffffffff16815260200190815260200160002054101561085f576040517f08c379a000000000000000000000000000000000000000000000000000000000815260040161085690610c53565b60405180910390fd5b81600560003073ffffffffffffffffffffffffffffffffffffffff1673ffffffffffffffffffffffffffffffffffffffff16815260200190815260200160002060008282546108ae9190610d20565b9250508190555081600560008573ffffffffffffffffffffffffffffffffffffffff1673ffffffffffffffffffffffffffffffffffffffff16815260200190815260200160002060008282546109049190610cca565b925050819055508273ffffffffffffffffffffffffffffffffffffffff163073ffffffffffffffffffffffffffffffffffffffff167fddf252ad1be2c89b69c2b068fc378daa952ba7f163c4a11628f55a4df523b3ef846040516109689190610c93565b60405180910390a36001905092915050565b6006602052816000526040600020602052806000526040600020600091509150505481565b6000813590506109ae81610e70565b92915050565b6000813590506109c381610e87565b92915050565b6000602082840312156109db57600080fd5b60006109e98482850161099f565b91505092915050565b60008060408385031215610a0557600080fd5b6000610a138582860161099f565b9250506020610a248582860161099f565b9150509250929050565b600080600060608486031215610a4357600080fd5b6000610a518682870161099f565b9350506020610a628682870161099f565b9250506040610a73868287016109b4565b9150509250925092565b60008060408385031215610a9057600080fd5b6000610a9e8582860161099f565b9250506020610aaf858286016109b4565b9150509250929050565b610ac281610d66565b82525050565b6000610ad382610cae565b610add8185610cb9565b9350610aed818560208601610d9c565b610af681610e5f565b840191505092915050565b6000610b0e601783610cb9565b91507f56616c7565206973206c65737320696e2040746f6b656e0000000000000000006000830152602082019050919050565b6000610b4e602083610cb9565b91507f596f7520646f206e6f7420686176652073756666696369656e742066756e64736000830152602082019050919050565b6000610b8e602183610cb9565b91507f416c6c6f77616e63652076616c7565206973206c65737320696e2040746f6b6560008301527f6e000000000000000000000000000000000000000000000000000000000000006020830152604082019050919050565b610bf081610d92565b82525050565b6000602082019050610c0b6000830184610ab9565b92915050565b60006020820190508181036000830152610c2b8184610ac8565b905092915050565b60006020820190508181036000830152610c4c81610b01565b9050919050565b60006020820190508181036000830152610c6c81610b41565b9050919050565b60006020820190508181036000830152610c8c81610b81565b9050919050565b6000602082019050610ca86000830184610be7565b92915050565b600081519050919050565b600082825260208201905092915050565b6000610cd582610d92565b9150610ce083610d92565b9250827fffffffffffffffffffffffffffffffffffffffffffffffffffffffffffffffff03821115610d1557610d14610e01565b5b828201905092915050565b6000610d2b82610d92565b9150610d3683610d92565b925082821015610d4957610d48610e01565b5b828203905092915050565b6000610d5f82610d72565b9050919050565b60008115159050919050565b600073ffffffffffffffffffffffffffffffffffffffff82169050919050565b6000819050919050565b60005b83811015610dba578082015181840152602081019050610d9f565b83811115610dc9576000848401525b50505050565b60006002820490506001821680610de757607f821691505b60208210811415610dfb57610dfa610e30565b5b50919050565b7f4e487b7100000000000000000000000000000000000000000000000000000000600052601160045260246000fd5b7f4e487b7100000000000000000000000000000000000000000000000000000000600052602260045260246000fd5b6000601f19601f8301169050919050565b610e7981610d54565b8114610e8457600080fd5b50565b610e9081610d92565b8114610e9b57600080fd5b5056fea264697066735822122012deb0010320da9c15ef68f33ad9a71603fe86a84e68e3c517119172ebc27c2964736f6c63430008000033",
  "linkReferences": {},
  "deployedLinkReferences": {}
}