{
  "_format": "hh-sol-artifact-1",
  "contractName": "TokenSale",
  "sourceName": "contracts/TokenSale.sol",
  "abi": [
    {
      "inputs": [
        {
          "internalType": "contract AceToken",
          "name": "_contract",
          "type": "address"
        },
        {
          "internalType": "uint256",
          "name": "_tokenPrice",
          "type": "uint256"
        }
      ],
      "stateMutability": "nonpayable",
      "type": "constructor"
    },
    {
      "anonymous": false,
      "inputs": [
        {
          "indexed": false,
          "internalType": "address",
          "name": "_buyer",
          "type": "address"
        },
        {
          "indexed": false,
          "internalType": "uint256",
          "name": "_amount",
          "type": "uint256"
        }
      ],
      "name": "Sell",
      "type": "event"
    },
    {
      "inputs": [
        {
          "internalType": "uint256",
          "name": "_numberOfTokens",
          "type": "uint256"
        }
      ],
      "name": "buyTokens",
      "outputs": [],
      "stateMutability": "payable",
      "type": "function"
    },
    {
      "inputs": [],
      "name": "endSale",
      "outputs": [],
      "stateMutability": "nonpayable",
      "type": "function"
    },
    {
      "inputs": [],
      "name": "tokenContract",
      "outputs": [
        {
          "internalType": "contract AceToken",
          "name": "",
          "type": "address"
        }
      ],
      "stateMutability": "view",
      "type": "function"
    },
    {
      "inputs": [],
      "name": "tokenPrice",
      "outputs": [
        {
          "internalType": "uint256",
          "name": "",
          "type": "uint256"
        }
      ],
      "stateMutability": "view",
      "type": "function"
    },
    {
      "inputs": [],
      "name": "tokenSold",
      "outputs": [
        {
          "internalType": "uint256",
          "name": "",
          "type": "uint256"
        }
      ],
      "stateMutability": "view",
      "type": "function"
    }
  ],
  "bytecode": "0x60806040523480156200001157600080fd5b5060405162000d2238038062000d228339818101604052810190620000379190620000f5565b336000806101000a81548173ffffffffffffffffffffffffffffffffffffffff021916908373ffffffffffffffffffffffffffffffffffffffff16021790555081600160006101000a81548173ffffffffffffffffffffffffffffffffffffffff021916908373ffffffffffffffffffffffffffffffffffffffff160217905550806002819055505050620001bc565b600081519050620000d88162000188565b92915050565b600081519050620000ef81620001a2565b92915050565b600080604083850312156200010957600080fd5b60006200011985828601620000c7565b92505060206200012c85828601620000de565b9150509250929050565b600062000143826200015e565b9050919050565b6000620001578262000136565b9050919050565b600073ffffffffffffffffffffffffffffffffffffffff82169050919050565b6000819050919050565b62000193816200014a565b81146200019f57600080fd5b50565b620001ad816200017e565b8114620001b957600080fd5b50565b610b5680620001cc6000396000f3fe60806040526004361061004a5760003560e01c80633610724e1461004f578063380d831b1461006b578063519ee19e1461008257806355a373d6146100ad5780637ff9b596146100d8575b600080fd5b610069600480360381019061006491906106af565b610103565b005b34801561007757600080fd5b506100806103a5565b005b34801561008e57600080fd5b50610097610615565b6040516100a49190610945565b60405180910390f35b3480156100b957600080fd5b506100c261061b565b6040516100cf91906108aa565b60405180910390f35b3480156100e457600080fd5b506100ed610641565b6040516100fa9190610945565b60405180910390f35b6002548161011191906109c7565b341015610153576040517f08c379a000000000000000000000000000000000000000000000000000000000815260040161014a906108c5565b60405180910390fd5b80600160009054906101000a900473ffffffffffffffffffffffffffffffffffffffff1673ffffffffffffffffffffffffffffffffffffffff166370a08231600160009054906101000a900473ffffffffffffffffffffffffffffffffffffffff166040518263ffffffff1660e01b81526004016101d1919061083d565b60206040518083038186803b1580156101e957600080fd5b505afa1580156101fd573d6000803e3d6000fd5b505050506040513d601f19601f8201168201806040525081019061022191906106d8565b1015610262576040517f08c379a000000000000000000000000000000000000000000000000000000000815260040161025990610905565b60405180910390fd5b600160009054906101000a900473ffffffffffffffffffffffffffffffffffffffff1673ffffffffffffffffffffffffffffffffffffffff1663a9059cbb33836040518363ffffffff1660e01b81526004016102bf929190610881565b602060405180830381600087803b1580156102d957600080fd5b505af11580156102ed573d6000803e3d6000fd5b505050506040513d601f19601f820116820180604052508101906103119190610686565b610350576040517f08c379a000000000000000000000000000000000000000000000000000000000815260040161034790610925565b60405180910390fd5b80600360008282546103629190610971565b925050819055507f5e5e995ce3133561afceaa51a9a154d5db228cd7525d34df5185582c18d3df09338260405161039a929190610881565b60405180910390a150565b60008054906101000a900473ffffffffffffffffffffffffffffffffffffffff1673ffffffffffffffffffffffffffffffffffffffff163373ffffffffffffffffffffffffffffffffffffffff1614610433576040517f08c379a000000000000000000000000000000000000000000000000000000000815260040161042a906108e5565b60405180910390fd5b6000600160009054906101000a900473ffffffffffffffffffffffffffffffffffffffff1673ffffffffffffffffffffffffffffffffffffffff166370a08231600160009054906101000a900473ffffffffffffffffffffffffffffffffffffffff166040518263ffffffff1660e01b81526004016104b2919061083d565b60206040518083038186803b1580156104ca57600080fd5b505afa1580156104de573d6000803e3d6000fd5b505050506040513d601f19601f8201168201806040525081019061050291906106d8565b9050600160009054906101000a900473ffffffffffffffffffffffffffffffffffffffff1673ffffffffffffffffffffffffffffffffffffffff1663a9059cbb60008054906101000a900473ffffffffffffffffffffffffffffffffffffffff16836040518363ffffffff1660e01b8152600401610581929190610858565b602060405180830381600087803b15801561059b57600080fd5b505af11580156105af573d6000803e3d6000fd5b505050506040513d601f19601f820116820180604052508101906105d39190610686565b610612576040517f08c379a000000000000000000000000000000000000000000000000000000000815260040161060990610925565b60405180910390fd5b50565b60035481565b600160009054906101000a900473ffffffffffffffffffffffffffffffffffffffff1681565b60025481565b60008151905061065681610af2565b92915050565b60008135905061066b81610b09565b92915050565b60008151905061068081610b09565b92915050565b60006020828403121561069857600080fd5b60006106a684828501610647565b91505092915050565b6000602082840312156106c157600080fd5b60006106cf8482850161065c565b91505092915050565b6000602082840312156106ea57600080fd5b60006106f884828501610671565b91505092915050565b61070a81610a69565b82525050565b61071981610a21565b82525050565b61072881610a7b565b82525050565b600061073b600d83610960565b91507f5072696365206973206c657373000000000000000000000000000000000000006000830152602082019050919050565b600061077b601583610960565b91507f596f7520617265206e6f7420746865206f776e657200000000000000000000006000830152602082019050919050565b60006107bb601983610960565b91507f417661696c61626c6520746f6b656e7320617265206c657373000000000000006000830152602082019050919050565b60006107fb601583610960565b91507f5472616e73666572696e67206973206661696c656400000000000000000000006000830152602082019050919050565b61083781610a5f565b82525050565b60006020820190506108526000830184610710565b92915050565b600060408201905061086d6000830185610701565b61087a602083018461082e565b9392505050565b60006040820190506108966000830185610710565b6108a3602083018461082e565b9392505050565b60006020820190506108bf600083018461071f565b92915050565b600060208201905081810360008301526108de8161072e565b9050919050565b600060208201905081810360008301526108fe8161076e565b9050919050565b6000602082019050818103600083015261091e816107ae565b9050919050565b6000602082019050818103600083015261093e816107ee565b9050919050565b600060208201905061095a600083018461082e565b92915050565b600082825260208201905092915050565b600061097c82610a5f565b915061098783610a5f565b9250827fffffffffffffffffffffffffffffffffffffffffffffffffffffffffffffffff038211156109bc576109bb610ac3565b5b828201905092915050565b60006109d282610a5f565b91506109dd83610a5f565b9250817fffffffffffffffffffffffffffffffffffffffffffffffffffffffffffffffff0483118215151615610a1657610a15610ac3565b5b828202905092915050565b6000610a2c82610a3f565b9050919050565b60008115159050919050565b600073ffffffffffffffffffffffffffffffffffffffff82169050919050565b6000819050919050565b6000610a7482610a9f565b9050919050565b6000610a8682610a8d565b9050919050565b6000610a9882610a3f565b9050919050565b6000610aaa82610ab1565b9050919050565b6000610abc82610a3f565b9050919050565b7f4e487b7100000000000000000000000000000000000000000000000000000000600052601160045260246000fd5b610afb81610a33565b8114610b0657600080fd5b50565b610b1281610a5f565b8114610b1d57600080fd5b5056fea2646970667358221220b5d3b28836efb635359373a7ce78f36dc4a421e0d3afe7a636448c5ca60f195164736f6c63430008000033",
  "linkReferences": {},
  "deployedLinkReferences": {}
}